:020000040800F2
:1000000078490020E9020008D51B00080D1A0008F5
:10001000D11B000843050008612200080000000011
:10002000000000000000000000000000290200089D
:10003000870600080000000085020008331E000843
:100040000303000803030008030300080303000878
:100050000303000803030008030300080303000868
:100060000303000803030008030300080303000858
:1000700099050008030300080303000803030008B0
:100080000303000803030008030300080303000838
:100090000303000803030008030300080303000828
:1000A0000303000803030008030300080303000818
:1000B0000303000803030008030300080303000808
:1000C00003030008030300080303000803030008F8
:1000D0000303000803030008030300083D21000890
:1000E00003030008030300080303000803030008D8
:1000F00003030008030300080303000803030008C8
:1001000003030008030300080303000803030008B7
:1001100003030008030300080303000803030008A7
:100120000303000803030008030300080303000897
:100130000303000803030008030300080303000887
:100140000303000803030008030300080303000877
:100150000303000803030008030300080303000867
:100160000303000803030008030300080303000857
:100170000303000803030008030300080000000055
:10018000030300080303000800F002F800F03CF845
:100190000AA090E8000C82448344AAF10107DA45E2
:1001A00001D100F031F8AFF2090EBAE80F0013F0F8
:1001B000010F18BFFB1A43F0010318477034000009
:1001C00090340000103A24BF78C878C1FAD852079A
:1001D00024BF30C830C144BF04680C6070470000C1
:1001E0000023002400250026103A28BF78C1FBD840
:1001F000520728BF30C148BF0B6070471FB503F0DE
:10020000D1F91FBD10B510BD00F061F91146FFF71F
:10021000F5FF02F093F900F07FF903B4FFF7F2FF66
:1002200003BC00F087F900002C4B19680868B0E89F
:10023000F04F80F30988BFF36F8F4FF0000080F319
:10024000118870470000000008480068006880F3CB
:1002500008884FF0000080F3148862B661B6BFF3DF
:100260004F8FBFF36F8F00DF00BF00BF08ED00E0CE
:10027000DFF80C00016841F470010160704700BFB5
:1002800088ED00E0EFF30980BFF36F8F134B1A681E
:100290001EF0100F08BF20ED108A20E9F04F10600B
:1002A00009B44FF0500080F31188BFF34F8FBFF3B4
:1002B0006F8F02F09DFE4FF0000080F3118809BCA3
:1002C00019680868B0E8F04F1EF0100F08BFB0ECD6
:1002D000108A80F30988BFF36F8F70471C000020DD
:1002E000EFF3058070470000094880470948004740
:1002F000FEE7FEE7FEE7FEE7FEE7FEE7FEE7FEE7D6
:10030000FEE7FEE704480549054A064B7047000032
:10031000FD1E00088901000878430020784900206C
:10032000784500207845002053EA020C00F06980EF
:100330002DE9F04B4FF00006002B1FBFB3FA83F5F9
:1003400003FA05F424FA05F65E4012BF1643B2FA2A
:1003500082F502FA05F4C5F120051EBF22FA05FC5C
:1003600044EA0C04203556EA044C4FEA144418BF02
:10037000641C4FF000084FF00009904271EB030C31
:1003800039D3002919BFB1FA81F701FA07F6B0FA9B
:1003900080F700FA07F6C7F120071EBF20FA07FC16
:1003A00046EA0C062037B6FBF4FCA7EB0507103F26
:1003B00007F01F0BCBF120060CFA0BFB2CFA06F60C
:1003C00044BFB3460026202FA4BF5E464FF0000B6B
:1003D0005BEA060C08BF4FF0010B19EB0B09ABFBF6
:1003E000027C48EB0608C01B06FB02CC0BFB03CCCF
:1003F00071EB0C01C1E70B46024641464846BDE899
:10040000F08B13B54FF000004FF00001AFF3008008
:10041000BDE81C40704710B5203AC0F00B80B1E831
:100420001850203AA0E81850B1E81850A0E8185029
:10043000BFF4F5AF5FEA027C24BFB1E81850A0E832
:10044000185044BF18C918C0BDE810405FEA827C4C
:1004500024BF51F8043B40F8043B08BF7047D20763
:1004600028BF31F8023B48BF11F8012B28BF20F804
:10047000023B48BF00F8012B70474FF0000200B567
:10048000134694469646203922BFA0E80C50A0E8B7
:100490000C50B1F12001BFF4F7AF090728BFA0E865
:1004A0000C5048BF0CC05DF804EB890028BF40F831
:1004B000042B08BF704748BF20F8022B11F0804F73
:1004C00018BF00F8012B704770477047704775469A
:1004D00000F02CF8AE4605006946534620F00700B0
:1004E000854618B020B5FFF70DFFBDE820404FF05E
:1004F00000064FF000074FF000084FF0000B21F00E
:100500000701AC46ACE8C009ACE8C009ACE8C009DA
:10051000ACE8C0098D46704710B50446AFF30080C3
:100520002046BDE81040FFF778BE00000048704745
:100530001443002001491820ABBEFEE7260002004C
:10054000704700BFFEE70000F8B507460C461546A9
:100550001E464FF400700D49086000208860C86096
:1005600008200861380A0A4908704F70200A88700C
:10057000CC70280A08714D71300A8871CE716B46B3
:100580000A460249034800F082F8F8BD30410020D5
:100590008C000020EC02002010B5024800F07CFA2C
:1005A00010BD000080030020014608781038182391
:1005B000B0FBF3F20848805CC865032A05D90868D7
:1005C0006FF30900001D886503E008686FF30900F8
:1005D0008865886D70470000E835000801460020F6
:1005E0008A6A8B69CBB932B1012A0DD0022A03D0B5
:1005F000032A10D10EE000BFCB6A03F08073B3F181
:10060000807F00D1012007E0CB6AB3F1C07F00D129
:10061000012001E000E000BF34E08B69B3F5005F2A
:100620001AD132B1012A07D0022A03D0032A11D1EC
:100630000AE000BF01200EE0CB6A03F08073B3F143
:10064000807F00D1012006E0CB6AB3F1C07F00D1EA
:10065000012000E000BF15E032B1012A05D0022AD6
:1006600004D0032A0CD103E000BF00BF012008E042
:10067000CB6A03F08073B3F1807F00D1012000E0EA
:1006800000BF00BF7047704772B600BFFEE7F0B50D
:1006900004460D461E4694F8207020688368A868BA
:1006A00000B900E000BF012F01D0022F7CD103F080
:1006B000806030B903F0006018B903F08050002862
:1006C00073D0C3F30161022905D9606A40F40000C8
:1006D00060620120F0BD012088403060A86860B9E8
:1006E000B5F800C0E86840EA4C5C206800F5C070CE
:1006F00000EB0110C0F800C00FE0D5E901C040EAEE
:10070000CC00D5F80CC040EA0C00D4F800C00CF5C1
:10071000C07C0CEB011CCCF80000D5F810C02068A0
:1007200000F5C07000EB0110C0F804C0287D01285E
:100730000ED1206800F5C07000EB0110406840F455
:10074000807C206800F5C07000EB0110C0F804C088
:10075000D079000692F806C040EA0C4092F805C035
:1007600040EA0C2C10794CEA000C206800F5C070AF
:1007700000EB0110C0F80CC0D078000692F802C05F
:1007800040EA0C4092F801C040EA0C2092F800C008
:1007900040EA0C00D4F800C00CF5C07C0CEB011C46
:1007A000CCF80800206801E016E00FE000F5C0700A
:1007B00000EB0110006840F0010C206800F5C070EB
:1007C00000EB0110C0F800C0002083E7606A40F42D
:1007D0000010606201207DE7606A40F48020606262
:1007E000012077E770B504460CB9012070BD94F87C
:1007F000200010B9204600F0AFF82068006840F0F3
:1008000001002168086000F0D5FB05460DE000F00E
:10081000D1FB401B0A2808D9606A40F400306062AE
:10082000052084F820000120E0E72068406800F0FF
:1008300001000028EBD02068006820F00200216849
:10084000086000F0B7FB05460DE000F0B3FB401B6D
:100850000A2808D9606A40F400306062052084F8F4
:1008600020000120C2E72068406800F00200002854
:10087000EBD1207E012806D12068006840F080007E
:100880002168086005E02068006820F08000216889
:100890000860607E012806D12068006840F04000B2
:1008A0002168086005E02068006820F040002168A9
:1008B0000860A07E012806D12068006840F0200072
:1008C0002168086005E02068006820F020002168A9
:1008D0000860E07E012806D12068006820F0100042
:1008E0002168086005E02068006840F01000216879
:1008F0000860207F012806D12068006840F00800C9
:100900002168086005E02068006820F00800216880
:100910000860607F012806D12068006840F004006C
:100920002168086005E02068006820F00400216864
:100930000860D4E90201084321690843616908435A
:100940006168491E08432168C86100206062012077
:1009500084F82000002049E710B586B00446142131
:1009600001A8FFF78AFD4749206888423AD14648E6
:100970000068401C444908600846006801280FD1FF
:1009800000BF002000904148006840F000703F49DF
:1009900008600846006800F00070009000BF00BFCB
:1009A00000BF0020009039481038006840F0020075
:1009B0003649103908600846006800F002000090CF
:1009C00000BF00BF4FF44070019002200290002051
:1009D0000390032004900920059001A92C4800F001
:1009E000F1F94CE02B492068884248D100BF002033
:1009F00000902648006840F080602449086008465E
:100A0000006800F08060009000BF00BF1E480068D2
:100A1000401C1D4908600846006801280FD100BF2E
:100A2000002000901948006840F0007017490860E5
:100A30000846006800F00070009000BF00BF00BFD3
:100A40000020009011481038006840F002000F4963
:100A5000103908600846006800F00200009000BFEE
:100A600000BF60200190022002900020039003202C
:100A700004900920059001A9054800F0A3F906B0EB
:100A800010BD000000640040080000204038024013
:100A90000004024000680040F8B5044600200090C1
:100AA0008C4800684FF41651B0FBF1F7A56D2E6825
:100AB00094F85C1008208840304098B120680068A5
:100AC00000F0040070B12068006820F00400216884
:100AD000086094F85C1008208840A860606D40F0C1
:100AE0000100606594F85C1001208840304068B1D6
:100AF0002068406900F0800040B194F85C1001204B
:100B00008840A860606D40F00200606594F85C1059
:100B100004208840304068B12068006800F002007E
:100B200040B194F85C1004208840A860606D40F0EB
:100B30000400606594F85C1010208840304078B361
:100B40002068006800F0080050B394F85C10102092
:100B50008840A8602068006800F4802080B1206888
:100B6000006800F4002028B9206CC8B12046216C30
:100B7000884715E0A06C98B12046A16C88470FE02B
:100B80002068006800F4807028B92068006820F0B0
:100B9000080021680860206C10B12046216C88474D
:100BA00094F85C10202088403040002865D02068F0
:100BB000006800F0100000285FD094F85C1020203E
:100BC0008840A86094F83500052828D1206800687E
:100BD00020F01600216808602068406920F080003D
:100BE00021684861206C08B9A06C28B120680068B1
:100BF00020F008002168086094F85C103F208840CD
:100C0000A860012084F8350000BF002084F834007B
:100C100000BF206D10B12046216D8847F8BD2068C7
:100C2000006800F4802080B12068006800F4002093
:100C300028B9606C10B12046616C88471DE0E06BFC
:100C4000D8B12046E16B884717E02068006800F4BF
:100C5000807068B92068006820F010002168086082
:100C6000012084F8350000BF002084F8340000BF64
:100C7000E06B10B12046E16B8847606D38B3606D62
:100C800000F00100F0B1052084F83500206800680C
:100C900020F001002168086000BF0098401C00900F
:100CA000B84200D905E02068006800F00100002883
:100CB000F3D100BF012084F8350000BF002084F884
:100CC000340000BFE06C10B12046E16C884700BFE3
:100CD000A4E70000180000202DE9F041044600259B
:100CE00000F068F9074614B90120BDE8F081606A98
:100CF00000B100BF022084F8350000BF002084F856
:100D0000340000BF2068006820F0010021680860FE
:100D10000AE000F04FF9C01B052805D920206065C6
:100D2000032084F83500E0E72068006800F0010047
:100D30000028EED12068056821480540D4E901016A
:100D40000843E16808432169084361690843A169D0
:100D50000843E1690843216A08430543606A04289F
:100D600003D1D4E90B0108430543206805602068DE
:100D7000456925F00705606A0543606A04280DD1BE
:100D8000A06A0543E06A48B12046FFF727FC28B176
:100D900040206065012084F83500A6E720684561A1
:100DA0002046FFF701FC064694F85C103F2088407F
:100DB000B06000206065012084F83500002094E7D1
:100DC0003F8010F0F8B502460B46002500240020B5
:100DD0000021D5E0012606FA01F51E6806EA0504A1
:100DE000AC4274D11E7906F00306012E04D01E79A0
:100DF00006F00306022E13D190684F000326BE4072
:100E0000B0434F00DE68BE4030439060506801261A
:100E10008E40B0431E79C6F300168E4030435060BA
:100E20001E7906F00306032E09D0D0684F00032672
:100E3000BE40B0434F009E68BE403043D0601E7934
:100E400006F00306022E13D1CF0802F1200656F851
:100E500027004E07F70E0F26BE40B0434F07FF0E88
:100E60001E69BE403043CF0802F1200646F8270035
:100E700010684F000326BE40B0431E7906F00306FB
:100E80004F00BE40304310605E6806F44036002ECE
:100E900075D000BF002600963B4E366846F480466B
:100EA000394F3E603E46366806F48046009600BFE5
:100EB00000BF364E8F0856F827008E07370F0F26D3
:100EC000BE40B043324EB24202D1002624E056E08A
:100ED000304EB24201D101261EE02F4EB24201D166
:100EE000022619E02D4EB24201D1032614E02C4E09
:100EF000B24201D104260FE02A4EB24201D10526AA
:100F00000AE0294EB24201D1062605E0274EB24240
:100F100001D1072600E008268F073F0FBE4030436F
:100F20001A4E8F0846F82700214E3068A0435E68AD
:100F300006F4803606B120431D4E3060361D306801
:100F4000A0435E6806F4003606B12043184E361DF5
:100F50003060361D3068A0435E6806F4801606B126
:100F60002043134E08363060361D3068A0435E685B
:100F700006F4001606B120430D4E0C363060491CB5
:100F80001029FFF427AFF8BD44380240083801406B
:100F9000000002400004024000080240000C024031
:100FA000001002400014024000180240001C0240E1
:100FB000003C014001480068704700000C00002020
:100FC00003480068034909780844014908607047EC
:100FD0000C0000201400002010B50D48006840F4FB
:100FE00000700B4908600846006840F480600860A3
:100FF0000846006840F480700860032000F0A8F8FC
:101000000F2000F007F800F02BF8002010BD0000C2
:10101000003C024070B504460E4800784FF47A71E7
:10102000B1FBF0F00C490968B1FBF0F5284600F07F
:1010300031FC08B1012070BD102C07D200222146DE
:10104000501E00F047F80548046001E00120F2E777
:101050000020F0E7140000201800002010000020FD
:1010600008B500BF002000901148006840F480409F
:101070000F4908600846006800F48040009000BFF7
:1010800000BF00BF00200090081F006840F08050A3
:10109000091F08600846006800F08050009000BFFB
:1010A00000BF00220F21901E00F014F808BD0000C0
:1010B0004438024001460846002809DB00F01F03BF
:1010C00001229A4043099B0003F1E023C3F8002169
:1010D00000BF70472DE9F05F80460D461646002799
:1010E00001F0C0F8074639462A46334601F00700AA
:1010F000C0F1070ABAF1040F02D94FF0040A01E067
:10110000C0F1070AD14600F1040ABAF1070F02D272
:101110004FF0000A01E0A0F1030AD4464FF0010AA3
:101120000AFA09FAAAF1010A0AEA020A0AFA0CFA08
:101130004FF0010B0BFA0CFBABF1010B0BEA030BAD
:101140004AEA0B042146404601F094F8BDE8F09FBE
:1011500000BF00F00702064B19684FF6FF03194065
:10116000044B0B4343EA0221014B196000BF704757
:101170000CED00E00000FA0570B504460D460CB910
:10118000012070BD5848006800F00700A84209D24D
:1011900055490D700846006800F00700A84201D0CC
:1011A0000120EEE7207800F0020002281DD120780F
:1011B00000F00400042805D14C48006840F4E050D9
:1011C0004A490860207800F00800082805D14748FF
:1011D000006840F46040454908604448006820F0D9
:1011E000F000A168084341490860207800F0010040
:1011F000A8B36068012807D13C4808380068C0F3EC
:101200004040B8B90120BCE76068022802D060689D
:10121000032807D1354808380068C0F3406048B952
:101220000120AEE7314808380068C0F3400008B933
:101230000120A6E72D48006820F0030061680843FC
:101240002A490860FFF7B6FE064609E0FFF7B2FE3E
:10125000801B41F28831884202D9032091E707E0E0
:101260002248006800F00C006168B0EB810FEDD1FE
:101270001D48006800F00700A84209D91A490D70FE
:101280000846006800F00700A84201D0012078E776
:10129000207800F00400042807D11448006820F4E6
:1012A000E050E168084311490860207800F0080028
:1012B000082808D10D48006820F46040216940EA00
:1012C000C1000A49086000F03FF808490968C1F305
:1012D0000311074A515CC840064908600648006887
:1012E000FFF798FE00204CE7003C0240083802401F
:1012F000F0350008180000201000002001480068A8
:10130000704700001800002000B5FFF7F7FF044900
:101310000968C1F38221034A515CC84000BD000046
:10132000083802400036000800B5FFF7E7FF04491F
:101330000968C1F34231034A515CC84000BD000056
:1013400008380240003600082DE9F0470024002547
:101350000026A1462548006800F00C0020B10428B2
:1013600005D008283AD105E0DFF8849039E0DFF8AD
:10137000849036E01D48001F006800F03F041B48C1
:10138000001F006800F4800078B11A481749091F4F
:101390000968C1F38811A0FB0170014622460023B1
:1013A0003846FEF7C1FF05460EE011480F49091FF8
:1013B0000968C1F38811A0FB017001462246002391
:1013C0003846FEF7B1FF05460848001F0068C0F325
:1013D0000140401C4600B5FBF6F902E0DFF8109032
:1013E00000BF00BF4846BDE8F08700000838024053
:1013F0000024F400001BB700F8B504460CB9012026
:10140000F8BD207800F00100002874D0F948006889
:1014100000F00C0004280DD0F648006800F00C0025
:10142000082813D1F348001F006800F48000B0F5CD
:10143000800F0BD1EF4808380068C0F34040002807
:1014400059D06068002856D10120D9E700BF6068F4
:10145000B0F5803F08D1E7480838006840F4803094
:10146000E449083908601EE06068B0F5A02F0DD18E
:10147000E0480838006840F48020DE4908390860F8
:101480000846006840F4803008600CE0D94808380D
:10149000006820F48030D7490839086008460068A1
:1014A00020F48020086000BF606890B1FFF782FDE3
:1014B000054606E0FFF77EFD401B642801D90320A6
:1014C0009EE7CC4808380068C0F340400028F1D0BF
:1014D00011E0FFF76FFD054606E0FFF76BFD401BCF
:1014E000642801D903208BE7C24808380068C0F39C
:1014F00040400028F1D1207800F0020002285FD19E
:10150000BC48006800F00C0058B1BA48006800F010
:101510000C0008281CD1B748001F006800F48000A8
:10152000B0B9B44808380068C0F3400020B1E068A2
:10153000012801D0012063E7AE480838006820F098
:10154000F800216940EAC100AA490839086037E07B
:10155000E06800B30120A8490860FFF72BFD0546AD
:1015600006E0FFF727FD401B022801D9032047E7CB
:10157000A04808380068C0F340000028F1D09D481A
:101580000838006820F0F800216940EAC100994954
:101590000839086014E0002097490860FFF70AFD49
:1015A000054606E0FFF706FD401B022801D903208F
:1015B00026E7904808380068C0F340000028F1D1C1
:1015C000207800F0080008282CD16069A8B101201B
:1015D0008A490860FFF7EEFC054606E0FFF7EAFCE3
:1015E000401B022801D903200AE782486C300068BA
:1015F000C0F340000028F1D014E000207F490860CB
:10160000FFF7D8FC054606E0FFF7D4FC401B022894
:1016100001D90320F4E677486C300068C0F340003D
:101620000028F1D1207800F00400042870D10027B0
:1016300070483830006800F0805090B900BF00203A
:1016400000906C483830006840F08050694938316B
:1016500008600846006800F08050009000BF00BF9E
:1016600001276748006800F48070B0B964480068DA
:1016700040F4807062490860FFF79CFC054606E074
:10168000FFF798FC401B022801D90320B8E65C480C
:10169000006800F480700028F2D000BFA068012824
:1016A00008D154486830006840F001005149683161
:1016B00008601DE0A06805280DD14E48683000681C
:1016C00040F004004B49683108600846006840F06B
:1016D000010008600CE047486830006820F0010015
:1016E0004449683108600846006820F0040008603A
:1016F00000BFA068A8B1FFF75DFC054609E0FFF751
:1017000059FC401B41F28831884202D9032077E618
:1017100026E0384868300068C0F340000028EED06A
:1017200013E0FFF747FC054608E0FFF743FC401BCA
:1017300041F28831884201D9032061E62D486830A2
:101740000068C0F340000028EFD1012F07D12948DD
:101750003830006820F0805026493831086000BFDA
:10176000A069002845D02348006800F00C00082834
:101770005DD0A069022845D100201F490866FFF707
:1017800019FC054606E0FFF715FC401B022801D9AD
:10179000032035E6174808380068C0F34060002889
:1017A000F1D1D4E907010843616A40EA81110122BD
:1017B000A06AC2EB500041EA00412C20005D41EAE2
:1017C00000600C49091F086001200B490866FFF7FB
:1017D000F1FB054606E0FFF7EDFB401B022801D9AF
:1017E00003200DE6034808380068C0F34060002875
:1017F000F1D049E00838024000004742800E4742DD
:1018000000700040002021490866FFF7D3FB054621
:1018100006E0FFF7CFFB401B022801D90320EFE5CC
:101820001B480068C0F340600028F2D12CE0A0699A
:10183000012800D1E4E51648001D0668A0690128CA
:1018400020D006F48001E06981421BD106F03F01FF
:10185000206A814216D147F6C0703040616AB0EB11
:10186000811F0FD106F440310122A06AC2EB500063
:10187000B1EB004F06D106F070612C20005DB1EB9A
:10188000006F01D00120BBE50020B9E50000474210
:101890000038024070B504462546681EB0F1807FCE
:1018A00001D301200FE0681E4FF0E02148610F21B5
:1018B0004FF0FF3000F0DEFC00204FF0E0218861A7
:1018C00007200861002070BD10B504460CB9012046
:1018D00010BDA06900B100E000BF94F83D0028B938
:1018E000002084F83C00204600F028F8242084F8EA
:1018F0003D002068C06820F400502168C860204680
:1019000000F006FB2068006920F49040216808611F
:101910002068406920F02A00216848612068C0687A
:1019200040F400502168C86000202064202084F822
:101930003D0084F83E000020CAE7000010B586B0E4
:101940000446142101A8FEF798FD2B49206888421F
:1019500050D100BF002000902848006840F480204B
:10196000264908600846006800F48020009000BF07
:1019700000BF00BF0020009020481038006840F0F1
:1019800004001E49103908600846006800F0040091
:10199000009000BF00BF4FF4406001900220029011
:1019A00000200390032004900720059001A914480B
:1019B000FFF708FA1348144908604FF000604860C8
:1019C000002111488160C1604FF4806101610021F4
:1019D00041618161C1614FF4403101620021416286
:1019E000FFF77AF908B1FEF74FFE00BF0648A06383
:1019F000846300BF06B010BD00480040403802407C
:101A000000080240286002408003002000BFFEE77B
:101A100010B50E480E4908600320486000210C48AC
:101A20008160C1604FF4102101614FF400114161E8
:101A30000021017641768176C17601774177FEF704
:101A4000D1FE08B1FEF720FE10BD0000006400408A
:101A5000EC02002010B50E480E49086003204860D3
:101A600000210C488160C1604FF4102101614FF4E6
:101A7000001141610021017641768176C1760177BE
:101A80004177FEF7AFFE08B1FEF7FEFD10BD000086
:101A9000006800401403002008B500BF002000903B
:101AA0000A48006840F400100849086008460068C9
:101AB00000F40010009000BF00BF002205210C20A0
:101AC000FFF708FB0C20FFF7F5FA08BD303802409D
:101AD00000B58FB01C220C4908A8FEF79CFC002121
:101AE00008A800F057FD094908601C2206491C316E
:101AF00001A8FEF790FC002101A800F04BFD04496D
:101B000008600FB000BD0000B035000800000020E4
:101B10000400002008B500BF002000901D480068A8
:101B200040F002001B4908600846006800F002000F
:101B3000009000BF00BF00BF002000900846006872
:101B400040F0010008600846006800F001000090C5
:101B500000BF00BF00BF002000900846006840F0B2
:101B6000040008600846006800F00400009000BF10
:101B700000BF00BF002000900846006840F08000D1
:101B800008600846006800F08000009000BF00BFB9
:101B900008BD00003038024010B50A480A49086004
:101BA0000A484860002108488160C16001610C2139
:101BB000416100218161C161FFF786FE08B1FEF736
:101BC00063FD10BD004800403C030020A0860100DA
:101BD00000BFFEE700BFFEE7B0EE401A10B99FED70
:101BE000790A704790ED100A80ED110A90ED0F0A06
:101BF00080ED100AC0ED060A80ED071A30EEC10A2A
:101C000080ED0F0A0178002975D190ED010AD0ED21
:101C10000F1A20EE210A80ED090A90ED0A0AD0ED94
:101C2000021A90ED0F2A01EE820A80ED0A0A90ED69
:101C30000D0A80ED0E0A90ED0C0A80ED0D0A90ED74
:101C40000F0AD0ED101A30EE610A80ED0C0A90ED0B
:101C5000030AD0ED0C1A20EE210A80ED0B0A90ED5C
:101C60000A0AD0ED051AB4EEE10AF1EE10FA04DD2D
:101C700090ED050A80ED0A0A10E090ED0A0AD0ED19
:101C8000051AF1EE611AB4EEE10AF1EE10FA05D28E
:101C900090ED050AB1EE400A80ED0A0A90ED090ABE
:101CA000D0ED0A1A30EE210AD0ED0B1A30EE210ADF
:101CB00080ED080A90ED080AD0ED041AB4EEE10AAE
:101CC000F1EE10FA04DD90ED040A80ED080A76E0EA
:101CD00090ED080AD0ED041AF1EE611AB4EEE10AB3
:101CE000F1EE10FA6BD290ED040AB1EE400A80EDED
:101CF000080A64E0FFE70178012960D190ED0F0A3E
:101D0000D0ED101A30EE610AD0ED011A20EE210A52
:101D100080ED090A90ED020AD0ED0F1A20EE210A9B
:101D200080ED0A0A90ED0D0A80ED0E0A90ED0C0A86
:101D300080ED0D0A90ED0F0AD0ED101AB0EE002ADA
:101D400002EE610AD0ED111A30EE210A80ED0C0A84
:101D500090ED030AD0ED0C1A20EE210A80ED0B0A5B
:101D600090ED090AD0ED0A1A30EE210AD0ED0B1AD7
:101D700030EE210AD0ED081A30EE210A80ED080A73
:101D800090ED080AD0ED041AB4EEE10AF1EE10FA73
:101D900004DD90ED040A80ED080A10E090ED080AD9
:101DA000D0ED041AF1EE611AB4EEE10AF1EE10FA88
:101DB00005D290ED040AB1EE400A80ED080A90EDDC
:101DC000080A0EE70000000000B102B97047017078
:101DD00092ED001A80ED011A92ED011A80ED021ABF
:101DE00092ED021A80ED031A80ED040AC0ED050A97
:101DF0009FED0C1A80ED0E1A80ED0D1A80ED0C1A75
:101E00009FED081A80ED081A80ED0B1A80ED0A1A72
:101E100080ED091A80ED111A80ED101A80ED0F1A6D
:101E200000BFD3E70000000000BF012000F0A1FBCD
:101E3000FBE710B5FFF7C4F801F07EFA012801D0E6
:101E400001F0D0F910BD000000B593B0302107A813
:101E5000FEF713FB142102A8FEF70FFB00BF0020C2
:101E600001902448006840F08050224908600846EC
:101E7000006800F08050019000BF00BF00BF00204C
:101E800001901D48006840F480401B4908600846E6
:101E9000006800F48040019000BF00BF012007905F
:101EA0000004089002200D9041050E9106210F912B
:101EB000A8211091022111910421129107A8FFF786
:101EC0009BFA08B1FEF7E0FB0F200290022003907E
:101ED000002004904FF4A05005904FF480500690DD
:101EE000052102A8FFF748F908B1FEF7CDFB13B0B2
:101EF00000BD000040380240007000400348006808
:101F000040F47000014908607047000088ED00E06F
:101F10002DE9F84F04462068006920F44050E1683C
:101F20000843216808612169A06808436169084382
:101F3000E169084300902068C06849F20C61884359
:101F4000009908432168C8602068406920F4407007
:101F5000A16908432168486176492068884203D016
:101F600075492068884203D1FFF7DEF9814602E017
:101F7000FFF7CAF98146E069B0F5004F6CD1022045
:101F80006168A0FB015003461920A9FB00700146BF
:101F90002A463846FEF7C8F96421B0FBF1F04FEA53
:101FA000001A02206168A0FB01510B461920A9FB11
:101FB00000712A463846FEF7B7F983460220616869
:101FC000A0FB015003461920A9FB00712A463846A0
:101FD000FEF7AAF96421B0FBF1F000EBC00101EBC0
:101FE0000010ABEB8000322101EBC0006421B0FB9C
:101FF000F1F000F0F8000AEB400A02206168A0FB53
:10200000015003461920A9FB007001462A463846B4
:10201000FEF78AF9834602206168A0FB015003465F
:102020001920A9FB00712A463846FEF77DF9642184
:10203000B0FBF1F000EBC00101EB0010ABEB800056
:10204000322101EBC0006421B0FBF1F000F0070089
:102050005044216888606AE004206168A0FB015058
:1020600003461920A9FB007001462A463846FEF7B0
:102070005BF9824604206168A0FB015003461920E9
:10208000A9FB007001462A463846FEF74DF9642147
:10209000B0FBF1F000EBC00101EB0010AAEB8000F7
:1020A000322101EB00106421B0FBF1F000F0F00AE6
:1020B00004206168A0FB017003461920A9FB0051B0
:1020C0003A462846FEF730F96421B0FBF1F00AEBFE
:1020D000001A04206168A0FB01510B461920A9FBDE
:1020E00000712A463846FEF71FF9834604206168CE
:1020F000A0FB015003461920A9FB007001462A46A7
:102100003846FEF711F96421B0FBF1F000EBC00195
:1021100001EB0010ABEB8000322101EB00106421D9
:10212000B0FBF1F000F00F00504421688860BDE87A
:10213000F88F0000001001400014014008B542482B
:102140000068006800F0200060B100BF002000902F
:102150003D480068006800903B4800684068009077
:1021600000BF70E03948006800F0100000286AD015
:1021700000BF00200090344800680068009032489A
:1021800000684068009000BF00BF314800680068E8
:1021900000F4002058BB2E480068006820F00100C1
:1021A0002B49096808602A4800684068C0F120008F
:1021B000284908802020264909684860244800688A
:1021C000006840F40020224909680860204800683F
:1021D000006840F001001E49096808601D48008839
:1021E000122830D11C491D4800F000FD2BE0184892
:1021F0000068006820F0010015490968086014486B
:1022000000684068C0F12000124908802020104971
:10221000096848600E480068006820F400200C49F6
:10222000096808600A480068006840F00100084931
:102230000968086007480088122804D10649074841
:10224000203000F0D3FC08BD3C03002000480040D3
:102250008003002096000020484100205E410020BD
:1022600000BFFEE702480068C0F30220704700008C
:102270000CED00E010B5002804DB0A07130E054A38
:10228000135406E00A07140E034A00F00F031B1F45
:10229000D45410BD00E400E018ED00E070B5054630
:1022A000284600F0CDF8002419E005F1080101EB03
:1022B000041191ED011AF0EE410A05F1080101EB5C
:1022C000041191ED021AB0EE410A04EBC40205F1CB
:1022D000480101EBC200FFF77FFC601C44B2042CF4
:1022E000E3DB002413E004EBC40105F1480000EB3C
:1022F000C10090ED080ABDEEC00A10EE100A01B24E
:1023000005F1080000EB04108181601C44B2042C2C
:10231000E9DB70BD70B5054600F00CF928600024BB
:102320000FE004EBC40205F1480101EBC200DFED50
:102330000D0A9FED0D0A0D4A0021FFF745FD601CB7
:1023400044B2042CEDDB002409E0E0B200F0E6F832
:1023500005F1080101EB04110860601C44B2042C73
:10236000F3DB70BD0000FA4400007A46083600082E
:102370000168897A022902D1002101710AE001680D
:10238000897A032901D1017104E00168897A012960
:1023900000D1017170470000017911B102292ED1DD
:1023A0000CE09FED180A80ED5A0A9FED160A80EDA9
:1023B0005B0A9FED140A80ED5C0A21E00168498800
:1023C0004FF47A7211FB02F100EE101AB8EEC00A57
:1023D00080ED5A0A0168098811FB02F100EE101A1B
:1023E000B8EEC00A80ED5B0A0168098911FB02F1B1
:1023F00000EE101AB8EEC00A80ED5C0A00E000BFE3
:1024000000BF7047000000000C48FFF783FF13E097
:102410000A48FFF7ADFF0948FFF7BEFF0748FFF77F
:102420003DFF064CB4F94430B4F93420B4F924101B
:10243000B4F91400FEF788F8EAE70000A041002094
:102440000CB5DFED350AB0EE600AD0ED5A0A90ED1A
:102450005B1A70EEC10A90ED5C1AF2EE041A41EEBE
:10246000210A60EE800AFDEEE00A10EE902A12B218
:10247000ADF80020D0ED5A0A90ED5B1A70EE810A9B
:1024800090ED5C1AF2EE041A41EE610A60EE800AE9
:10249000FDEEE00A10EE902A12B2ADF80220D0ED67
:1024A0005A0A90ED5B1A70EEC10A90ED5C1AF2EEDA
:1024B000041A41EE210A60EE800AFDEEE00A10EEF9
:1024C000902A12B2ADF80420D0ED5A0A90ED5B1AB2
:1024D00070EE810A90ED5C1AF2EE041A41EE610A88
:1024E00060EE800AFDEEE00A10EE902A12B2ADF81E
:1024F000062000210DE03DF9112000EE902AF8EEB3
:10250000E00A00F1080202EB0112C2ED010A4A1CC6
:1025100051B20429EFDB0CBD8E489546014601F00F
:10252000030000EB8000024A02EB4000704700000D
:10253000D04000200048704748410020FEF74CFD85
:10254000FFF782FCFFF7E6FAFFF7A6FAFFF760FA5B
:10255000FFF780FAFFF720FBFFF7BAFA00F015F853
:1025600000BFFEE701460020842901D0CA1C1044A8
:10257000704770B5044625460DB1294600E001219B
:10258000084600F0A7FC002070BD10B500F0D0FC9C
:10259000002010BD7FB504460D46606998B1A06962
:1025A00088B1B4F90800FFF7DDFF0646D4E905104D
:1025B000CDE9006102902B462269D4E9001000F0B9
:1025C0005DFE039013E0B4F90800FFF7CBFF064669
:1025D00003A8CDE90060238A9AB22B46D4E9001003
:1025E00000F01AFE012802D0002004B070BD03984C
:1025F000FBE700002DE9F04105460E461C48076840
:102600001C480068001D00F061FB50B919480068C3
:1026100090F82C100120884017490968814316481A
:102620000160681C38B936B112480168091D1348A9
:1026300000F096FB1AE07C190E4800684460BC422A
:1026400007D20C480168091D0D48006800F06EFBB8
:102650000CE008480168091D0A48006800F066FBA4
:1026600009480068844201D207480460BDE8F0814F
:10267000300000201C00002034000020BC0400209A
:1026800024000020200000204C00002010B504464B
:1026900000F072FB23480068401C22490860224871
:1026A000006840B9204804600846006801280DD140
:1026B00000F03EF90AE01D48006838B91A48006881
:1026C000C06AE16A884201D8174804601848006867
:1026D000401C1749086094F82C10012088401549C7
:1026E0000968084313490860E16A01EB8101124A55
:1026F00002EB8100211D00F033FB00F067FB0B486B
:10270000006868B108480068C06AE16A884207D278
:102710004FF0805009490860BFF34F8FBFF36F8FB0
:1027200010BD00002C0000201C00002038000020FC
:102730004800002034000020E003002004ED00E009
:1027400010B516E000F018FB0C48C068C468201DE6
:1027500000F0BCFA0A480068401E094908600948B0
:102760000068401E0749086000F030FB204600F07A
:102770000BF8044800680028E4D110BDA80400202C
:102780002C0000202800002010B5044694F85100C9
:1027900030B9206B00F038FB204600F035FB1AE022
:1027A00094F85100012803D1204600F02DFB12E0DF
:1027B00094F85100022801D1012000E0002050B916
:1027C00000BF502080F31188BFF34F8FBFF36F8F8E
:1027D00000BF00BFFEE710BD30B54FF4705317487F
:1027E00000F007042CB1C01D20F00700134C041B9F
:1027F0001B1B0246124C22600024114D6C60D01845
:10280000083820F007000F4C206000240D4D2D6883
:102810006C600C4D2D682C601146441A4C60094CBC
:1028200024680C60084D4C682C60084D4C682C6086
:102830004FF00044064D2C6030BD0000D004002055
:102840005800002060000020680000206400002084
:102850007400002000BFFFF773FF064800680128DE
:10286000F9D94FF0805004490860BFF34F8FBFF390
:102870006F8FF0E7E003002004ED00E02DE9FF5F3B
:1028800081460E469246DDE90E7B109CAAF10100BE
:10289000216B01EB800828F0070808F0070008B951
:1028A000012000E0002050B900BF502080F31188C3
:1028B000BFF34F8FBFF36F8F00BF00BFFEE786B13E
:1028C000002507E0715D04F134004155705D00B9E9
:1028D00002E06D1C102DF5D300BF002143200155EF
:1028E00002E0002084F83400072F00D30627E762B7
:1028F00067640020A064201D00F015FA04F11800A0
:1029000000F011FA2461C7F10700A06164620020A1
:10291000E06484F8500049464046039A00F050F9BC
:102920002060BBF1000F01D0CBF80040BDE8FF9F55
:1029300010B5002407E004EB84010F4A02EB81008C
:1029400000F0E4F9641C072CF5D30C4800F0DEF924
:102950000B4800F0DBF90B4800F0D8F90A4800F00A
:10296000D5F90A4800F0D2F904480949086004483A
:102970000849086010BD0000E00300206C0400203E
:102980008004002094040020A8040020BC0400203F
:10299000200000202400002010B50146164800E069
:1029A000006803688B42FBD30246436813448B42A2
:1029B00004D143684C682344436001460A464B688F
:1029C00013440468A34211D10C4C03682468A34249
:1029D00008D04B680468646823444B6003681B6834
:1029E0000B6005E0054B1B680B6001E003680B60A2
:1029F000884200D0016010BD580000206000002017
:102A00000A490968096809B9012100E0002121B1DA
:102A10004FF0FF31064A116006E004490968C968B1
:102A2000C868034A41681160704700002000002018
:102A30004C0000200E480068401C08B9012000E04E
:102A4000002050B900BF502080F31188BFF34F8F92
:102A5000BFF36F8F00BF00BFFEE700BF502080F3C1
:102A60001188BFF34F8FBFF36F8F00BF00BFFEE72A
:102A7000780000202DE9F04104464FF0000800F0F6
:102A8000AFFA4948006808B9FFF7A6FE4748006852
:102A90002040002870D1D4B1083404F00700B0B150
:102AA00004F00700C0F10800044404F0070008B96E
:102AB000012000E0002050B900BF502080F31188B1
:102AC000BFF34F8FBFF36F8F00BF00BFFEE7002C37
:102AD00052D03748006884424ED8364E304605689A
:102AE00001E02E462D686868A04202D228680028BE
:102AF000F7D12D48006885423ED0306800F10808C3
:102B0000286830606868001B102819D92F1907F051
:102B1000070008B9012000E0002050B900BF502094
:102B200080F31188BFF34F8FBFF36F8F00BF00BFDB
:102B3000FEE76868001B78606C603846FFF72CFF82
:102B40001B4968680968081A19490860084600683E
:102B500019490968884203D2154800681649086077
:102B600012496868096808436860002028601348B3
:102B70000068401C1149086000F092FC08F0070052
:102B800008B9012000E0002050B900BF502080F3B8
:102B90001188BFF34F8FBFF36F8F00BF00BFFEE7F9
:102BA0004046BDE8F0810000600000207400002075
:102BB0006400002058000020680000206C00002005
:102BC000001F4FF080730360001F21F001030360BA
:102BD000001F054B036014380260001F6FF00203F2
:102BE0000360203870470000352A000809B9012227
:102BF00000E0002202B170470278437842EA0322E3
:102C0000C2F30A020A804278D210837842EA431261
:102C1000C2F30A024A8082789211C37842EA8302A0
:102C2000037942EA8322C2F30A028A8002795210AF
:102C3000437942EAC312C2F30A02CA80027C437C8F
:102C400042EA032212B20A814279C2F301128A7265
:102C5000427912119308CB728279C37942EA032236
:102C600012B28A81027A437A42EA032213B201F154
:102C70000C02CB81827AC37A42EA032213B201F1B9
:102C80000C020B82037B8B74437BCB74827BC37BF4
:102C900042EA03228A820A88A2F5806212B20A807E
:102CA0004A88A2F5806212B24A808A88A2F58062C0
:102CB00012B28A80CA88A2F5806212B2CA800A89DA
:102CC000A2F5806212B20A8100BF94E701460A6948
:102CD000D1E901309860D1E9010358605068884219
:102CE00001D188685060002008611068401E1060A3
:102CF00010687047034B0360034B0B608023136025
:102D00007047000098000020EC00002000F108014E
:102D100041604FF0FF31816000F10801C160016145
:102D200000210160704700210161704710B5024623
:102D30000B685C1C0CB9106907E002F1080000E0A8
:102D40004068446824689C42FAD944684C604C68E6
:102D5000A160886041600A611468641C146010BD41
:102D600042684A6093688B6093685960916008611B
:102D700003685B1C0360704700BF502080F311881C
:102D8000BFF34F8FBFF36F8F00BF0E480068401C2A
:102D90000C49086008460068012812D10A480068FA
:102DA000C0B208B9012000E0002050B900BF502097
:102DB00080F31188BFF34F8FBFF36F8F00BF00BF49
:102DC000FEE770477800002004ED00E00D48006841
:102DD00050B900BF502080F31188BFF34F8FBFF36D
:102DE0006F8F00BF00BFFEE706480068401E054920
:102DF00008600846006820B9002080F3118800BFF1
:102E000000BF70477800002070B506463546002E9A
:102E100044D0083D2C46224960680968084008B142
:102E2000012000E0002050B900BF502080F311883D
:102E3000BFF34F8FBFF36F8F00BF00BFFEE7206867
:102E400008B9012000E0002050B900BF502080F3F5
:102E50001188BFF34F8FBFF36F8F00BF00BFFEE736
:102E60000F49606809680840C0B12068B0B90C49D2
:102E7000606809688843606000F0B2F809496068DA
:102E800009680844074908602046FFF785FD0648A1
:102E90000068401C0449086000F002FB70BD00009F
:102EA00074000020640000207000002000204FF01B
:102EB000E02108618861064800684FF47A71B0FB30
:102EC000F1F0401E4FF0E021486107200861704793
:102ED0001800002070B504460025D4B112480068DF
:102EE00008B9012000E0002050B900BF502080F355
:102EF0001188BFF34F8FBFF36F8F00BF00BFFEE796
:102F000000F06EF800212046FFF774FB00F0C8FACD
:102F100005463DB94FF0805004490860BFF34F8F1C
:102F2000BFF36F8F70BD00005400002004ED00E07F
:102F300010B586B000200590049003AA04A905A846
:102F4000FFF7D8FE0022DDE904101346CDE9002189
:102F500002901CA11D48039A00F090F91C490860DA
:102F60000846006808B1012400E00024012C15D1B6
:102F700000BF502080F31188BFF34F8FBFF36F8FD6
:102F800000BF4FF0FF30134908600120124908606C
:102F900000201249086000F071F810E0601C08B1D0
:102FA000012000E0002050B900BF502080F31188BC
:102FB000BFF34F8FBFF36F8F00BF00BFFEE706B0B8
:102FC00010BD000049444C45000000005528000891
:102FD000500000204C00002038000020300000206D
:102FE00002480068401C01490860704754000020F6
:102FF0001D48006818B101201C49086032E000201B
:103000001A4908601A480068B0FA80F0C0F11F0140
:1030100001EB8100174A52F8200008B1012000E0BE
:10302000002050B900BF502080F31188BFF34F8FAC
:10303000BFF36F8F00BF00BFFEE701EB81020D4BB6
:1030400003EB820042685268426000F10802436864
:10305000934202D14268526842604268D268064B8D
:103060001A6000BF7047000054000020400000209C
:1030700034000020E00300201C0000201CB5524852
:1030800000685249884201D0012000E0002050B978
:1030900000BF502080F31188BFF34F8FBFF36F8FB5
:1030A00000BF00BFFEE7484800684849491E884203
:1030B00001D0012000E0002050B900BF502080F373
:1030C0001188BFF34F8FBFF36F8F00BF00BFFEE7C4
:1030D0003F49084600780190FF200A4610700846D4
:1030E000007800909DF8000000F0F0009DF80020AE
:1030F000904201D1012000E0002050B900BF5020D3
:1031000080F31188BFF34F8FBFF36F8F00BF00BFF5
:10311000FEE79DF8000000F050002E4A10700720D6
:103120002D4A106009E02C480068401E2A4A1060B1
:103130009DF800004006000E00909DF8000000F091
:1031400080008028EFD024480068C0F107000428E0
:1031500001D1012000E0002050B900BF502080F3D1
:103160001188BFF34F8FBFF36F8F00BF00BFFEE723
:10317000194800680002184A10601046008800F4E0
:10318000E0601060124A019810700F48203000680B
:1031900040F470000C49203108600846006840F097
:1031A00070400860FFF782FE00200C490860FDF7C0
:1031B0005FF80B48006840F0404009490860FDF79F
:1031C00043F800201CBD000000ED00E071C20F417B
:1031D00000E400E07C000020800000207800002057
:1031E00034EF00E010B500BF502080F31188BFF32A
:1031F0004F8FBFF36F8F00BF00F0AEF818B14FF0E4
:1032000080500449086000BF002080F3118800BF8F
:1032100010BD000004ED00E02DE9FF4F85B08046B1
:1032200089461746DDE912ABB800FFF723FC0646D6
:1032300056B15420FFF71EFC04460CB1266304E08F
:103240003046FFF7E1FD00E000248CB1002084F857
:103250005100CDE900ABCDE902403A46494640462F
:10326000089BFFF70BFB2046FFF710FA012501E052
:103270004FF0FF35284609B0BDE8F08F2DE9F04F3B
:1032800085B00746884691469A46DDE90EB6109C01
:103290000EB1012000E0002050B900BF502080F3A3
:1032A0001188BFF34F8FBFF36F8F00BF00BFFEE7E2
:1032B0000CB1012000E0002050B900BF502080F385
:1032C0001188BFF34F8FBFF36F8F00BF00BFFEE7C2
:1032D000542003900398542801D1012000E00020DD
:1032E00050B900BF502080F31188BFF34F8FBFF358
:1032F0006F8F00BF00BFFEE700BFB4B1AEB125467F
:103300002C462E63022085F85100002004A9534664
:103310004A46CDE900B1CDE9025041463846FFF7B3
:10332000ADFA2846FFF7B2F901E0002004900498B6
:1033300005B0BDE8F08F00000549096809B9012012
:1033400005E00449096809B9022000E0002070473F
:1033500038000020540000202DE9F0414FF0000813
:103360004448006800287CD143480068451C424816
:10337000056015BB41480068006808B9012000E0FD
:10338000002050B900BF502080F31188BFF34F8F49
:10339000BFF36F8F00BF00BFFEE7384807683848AB
:1033A0000068364908603648076036480068401CA7
:1033B00034490860FFF724FB00BF334800688542AA
:1033C0003CD300BF2D480068006808B9012000E028
:1033D000002020B14FF0FF302B4908602DE0274836
:1033E0000068C068C4686668B54202D226480660B4
:1033F00023E0201DFFF76AFCA06A18B104F1180051
:10340000FFF764FC94F82C10012088401F490968DC
:1034100008431E490860E16A01EB81011C4A02EB86
:103420008100211DFFF79CFC1A49E06A0968C96AFE
:103430008842C7D34FF00108C4E700BF15480068B1
:10344000C06A00EB8000124951F82000012801D920
:103450004FF001081048006808B14FF0010805E07E
:10346000FFE70E480068401C0C4908604046BDE874
:10347000F0810000540000203000002020000020D7
:1034800024000020440000204C00002034000020D4
:10349000E00300201C000020400000203C00002031
:1034A00070B5002400263648006850B900BF50208F
:1034B00080F31188BFF34F8FBFF36F8F00BF00BF42
:1034C000FEE7FFF759FC2E480068401E2C490860B3
:1034D0000846006800284FD12A48006800284BD0D1
:1034E00024E02948C068C46804F11800FFF7EEFB27
:1034F000201DFFF7EBFB94F82C1001208840234996
:103500000968084321490860E16A01EB8101204A0A
:1035100002EB8100211DFFF723FC1E49E06A0968C8
:10352000C96A884202D301201B4908601648006816
:1035300008B9012000E000200028D2D00CB1FFF72C
:103540005FFA1648056865B100BFFFF705FF10B1C7
:103550000120114908606D1E002DF6D100200F4991
:1035600008600D48006838B1012630070C49086032
:10357000BFF34F8FBFF36F8FFFF728FC304670BD4E
:10358000540000202C00002094040020340000206F
:10359000E00300201C000020400000203C00002030
:1035A00004ED00E04FF04070E1EE100A70470000BB
:1035B00020360008291E000800000000000000005E
:1035C0008000000000000000000000001436000829
:1035D00009240008FDFF000000000000800000003A
:1035E0000000000000000000000610160006101683
:1035F00000000000000000000102030406070809A3
:10360000000000000102030400606A46000020413F
:1036100000000000436861737369735461736B0049
:1036200064656661756C745461736B004C36000898
:103630000000002098000000C4010008E4360008E3
:1036400098000020E0480000E001000800000000B1
:10365000000000000000000000000000100000005A
:10366000010000000024F400000000000000000041
:10367000000000000000000000000000000000004A
:10368000000000000000000000000000000000003A
:10369000000000000000000000000000000000002A
:1036A000000000000000000000000000000000001A
:1036B000000000000000000000000000000000000A
:1036C00000000000AAAAAAAA000000000000000052
:1036D00000000000000000000000000000000000EA
:0436E00000000000E6
:040000050800018965
:00000001FF
